:1001D600202020426C7565746F6F74682020202083
:1001E60000486F6D65204175746F6D6174696F6E3F
:1001F600200053797374656D20537461727465645D
:100206000044313A4F46462020202044323A4F4699
:10021600460044333A4F46462020202044343A4F85
:1002260046460044313A4F4E200044313A4F464646
:100236000044323A4F4E200044323A4F464600447C
:10024600333A4F4E200044333A4F46460044343A40
:0B0256004F4E200044343A4F46460053
:06001C00011300011400B5
:0402AC007F647E00ED
:1002B0007D017C007B017A00D3EB9FEE6480F8EA3D
:1002C00064809850070BBB00010A80EC0DBD000153
:0702D0000CED64334C70DDFE
:0102D7002204
:10026100C2907F3812035A1202AC7F0112035A1254
:1002710002AC7F0F12035A1202AC7F0C12035A1206
:1002810002AC7F8012035A1202AC7F4F12034A1252
:1002910002AC7F4B12034A7FE87E031202B07F015A
:0B02A10012035A1202AC7F8002035AC5
:10034A00D2908F80D2917F0A7E001202B0C291228F
:100300008B158A168917AB15AA16A9171200036058
:10031000130517E5177002051614F9120003FF12F2
:05032000034A80E22207
:0A0389007F0112035A7F8002035A1D
:10035A00C2908F80D2917F0A7E001202B0C291228F
:0F037A00758921758DFD75985075A890D28E22CA
:1002D8007D017C007B017A00D3EB9FEE6480F8EA15
:1002E80064809850070BBB00010A80EC0DBD00012B
:0702F8000CBC04E0BDFCDDBD
:0102FF0022DC
:0300230002039342
:09039300C29885991285121432FA
:10036A00E4F5A8C2998F993099FDC29975A890228F
:100325008B158A168917AB15AA16A9171200036033
:10033500130517E5177002051614F9120003FF12CD
:05034500036A80E222C2
:10002600C2A0C2A1C2A2C2A31202617BFF7A017959
:10003600D61203007FC012035A7BFF7A0179E712BA
:100046000300C2B4C2B5C2B6C2B77F327E00120286
:10005600D8D2B4D2B5D2B6D2B712037A7BFF7A0120
:1000660079F81203251203897BFF7A0279071203B6
:10007600007FC012035A7BFF7A027918120300E54B
:1000860014B471137F8012035A7BFF7A0279291206
:100096000300D2A0020125E514B477127F80120373
:1000A6005A7BFF7A027930120300C2A08071E514F0
:1000B600B465127F8A12035A7BFF7A0279371203DC
:1000C60000D2A1805AE514B472127F8A12035A7BB9
:1000D600FF7A02793E120300C2A18043E514B4619F
:1000E600127FC012035A7BFF7A027945120300D2AF
:1000F600A2802CE514B473127FC012035A7BFF7AD8
:1001060002794C120300C2A28015E514B464167F6E
:10011600CA12035A7BFF7A027953120300D2A3E470
:10012600F514020085E514646660030200857FCA43
:1001360012035A7BFF7A02795A120300C2A3E4F52E
:04014600140200851A
:0300000002014AB0
:0C014A00787FE4F6D8FD75811702019162
:10000300BB010689828A83E0225002E722BBFE02FB
:09001300E32289828A83E493222E
:10015600020026E493A3F8E493A34003F68001F299
:1001660008DFF48029E493A3F85407240CC8C333AA
:10017600C4540F4420C8834004F456800146F6DF79
:10018600E4800B010204081020408090001CE47EED
:10019600019360BCA3FF543F30E509541FFEE4936E
:1001A600A360010ECF54C025E060A840B8E493A335
:1001B600FAE493A3F8E493A3C8C582C8CAC583CA60
:1001C600F0A3C8C582C8CAC583CADFE9DEE780BE18
:0100220000DD
:00000001FF
